:020000040800F2
:10000000D00800204501000817120008AD0E0008B6
:10001000151200084D050008F92400080000000032
:100020000000000000000000000000003D1B000870
:10003000A50B000800000000F91500088921000840
:1000400025250008C91500088B210008F3180008B1
:10005000C10C000851180008B10B0008B50B0008CE
:10006000B70B0008B90B0008BB0B00085D070008C0
:100070005F070008610700086307000865070008BC
:10008000670700086907000899020008992300081B
:10009000F5240008590500085B050008BD0B0008A1
:1000A0008D21000893210008912100088F2100086C
:1000B000952100089721000899210008B10E000839
:1000C000AF0E0008B50E0008B30E00089B1900081B
:1000D0009D190008192200081B2200081D22000893
:1000E000B30B0008F118000879230008A1210008CB
:1000F000A7210008A5210008A32100089B020008F1
:10010000F50C0008991900089B2100089F190008A8
:1001100015220008172200089D2100089F210008D1
:100120006B0700086D0700086F07000871070008DB
:10013000DFF80CD000F070F8004800471D270008D9
:10014000D0080020004800473101000830BF704748
:1001500020BF704740BF7047BFF36F8F7047BFF33A
:100160004F8F7047BFF35F8F704701DF7047EFF32A
:100170001480704780F31488BFF36F8F7047EFF3DC
:100180000980704780F309887047EFF30880704753
:1001900080F30888704762B6704772B67047EFF315
:1001A0001080704771B6704761B67047EFF31380E7
:1001B000704780F311887047EFF31280704740BAA0
:1001C000704700BA704740EA01039B0703D009E07B
:1001D00008C9121F08C0042AFAD203E011F8013B33
:1001E00000F8013B521EF9D2704730B50B4601466C
:1001F00000202022012409E021FA02F59D4205D3C6
:1002000003FA02F5491B04FA02F52844151EA2F16F
:100210000102F1DC30BD0000064C074D06E0E0684D
:1002200040F0010394E8070098471034AC42F6D33D
:10023000FFF782FF202900084029000870B501EB74
:10024000020410F8015B15F0070301D110F8013B1F
:100250002A1106D110F8012B03E010F8016B01F808
:10026000016B5B1EF9D12B0705D40023521E0FD45E
:1002700001F8013BFAE710F8013B02F10202A1EBA1
:10028000030303E013F8015B01F8015B521EF9D58B
:10029000A142D6D3002070BD704770470029816805
:1002A00002D041F0010101E021F0010181607047BD
:1002B00070B5012140F2052001F006FA4FF400402C
:1002C00001F0D4F90121084601F0DAF94648FF218E
:1002D00000240180C470032181700146434800F06E
:1002E0001FFD434D284600F093F8424901200C6061
:1002F000087148714FF46020C1E9020408200874B5
:10030000284600F0B1F8072301220021284600F01A
:10031000CFF8072302220121284600F0C9F807235D
:1003200003220221284600F0C3F8072304220321F8
:10033000284600F0BDF8072305220421284600F0D6
:10034000B7F8072306220521284600F0B1F8072355
:100350001A460621284600F0ABF807230822194662
:10036000284600F0A5F80121284600F047F80121B1
:100370002846FFF793FF284600F0D4F8284600F0FF
:100380006CF80028FAD1284600F0DBF8284600F087
:100390005DF80028FAD10121284600F0C8F8164D72
:1003A000284600F0F1F91349114814314C30086027
:1003B00001F12C00C1E901044FF4C870C1E9030444
:1003C00080204861400088618000C8612020086268
:1003D0000002C1E90904284600F046FA2846BDE8B3
:1003E0007040012100F0C5B90C0000200008014058
:1003F00000240140440100200800024000298168D7
:1004000002D041F4807101E021F480718160704775
:100410000D4910B5401811D04FF48064A04210D09F
:10042000B0F5C05F0FD10121CC03204601F058F98F
:100430002046BDE81040002101F052B901214C02D4
:10044000F3E70121F1E710BD00DCFEBF014689683A
:100450000020490700D50120704701468968002027
:10046000090700D50120704730B542680E4B0C7962
:100470001A400B6842EA04221343436082680B4B24
:100480004D791A40D1E9024342EA4502234313431E
:100490008360C26A097C22F47002491EC9B242EA32
:1004A0000151C16230BD0000FFFEF0FFFDF7F1FF1A
:1004B00070B5072609290AD9C568A1F10A0404EB19
:1004C0004404A640B543A3401D43C56007E0056949
:1004D00001EB4104A640B543A3401D4305611F2322
:1004E000072A09D2446B521E02EB820293409C43BE
:1004F00091400C43446370BD0D2A09D2046BD21F96
:1005000002EB820293409C4391400C43046370BD14
:10051000C46A0D3A02EB820293409C4391400C4323
:10052000C46270BD816841F0080181607047002994
:10053000816802D041F4A00101E021F4A0018160B2
:100540007047816841F0040181607047FEE7C1B2E5
:10055000000A40EA01207047704770472DE9F05FBC
:100560004BF68F7648F6BF775B4D40F68F7948F6AD
:100570000F785A4CDFF868A137E000BF47F6FF71EB
:10058000C4F8441C0188574A11F00F01117035D08E
:1005900004EB8100D0F8001C1FFA81FB5FEA0B41DD
:1005A0000ED5D0F8001C134689B201EA0901C0F843
:1005B000001C4D48197800EB810050F8040C80476E
:1005C0005FEA0B6011D54748017804EB8101D1F84F
:1005D000002C92B202EA0802C1F8002C43490078CC
:1005E00001EB800050F8040C8047D4F8441C5046BE
:1005F000AAF800100904C1D4BDE8F09F04F54064D6
:100600002168C1F301314FEA013129802168C1F32A
:1006100001114FEA01116980216889B201EA0601DE
:1006200081F400512160216889B201EA070181F05B
:10063000200121600088A4F54064C006D4F8000CB5
:1006400019D481B201EA0801C4F8001C1DE0890434
:1006500001D580F40050C4F8000CD4F8000C69886F
:1006600080B23840CA0634D4890601D580F0200013
:10067000C4F8000CC0E780B2010609D5D4F8000C1C
:1006800080B200EA0800C4F8000C00F015FC16E087
:10069000010509D5D4F8000C80B200EA0900C4F8BD
:1006A000000C01F09DFB0AE000049ED5D4F8000C7C
:1006B00080B200EA0900C4F8000C00F055FFD4F83D
:1006C000000C298880B23040CA04C0D580F4805024
:1006D000BDE780F01000C7E7220100200050004075
:1006E0002C000020100100204C00002030000020D1
:1006F000084901EB8000D0F8001C490409D5D0F866
:10070000001C48F68F7289B2114041F48041C0F854
:10071000001C704700500040084901EB8000D0F8F1
:10072000001C490609D5D0F8001C48F68F7289B222
:10073000114041F04001C0F8001C704700500040DB
:10074000054901EB8000D0F8001C48F68F6289B2A1
:100750001140C0F8001C70470050004070477047BF
:1007600070477047704770477047704770477047D1
:1007700070470029016802D041F0010101E021F039
:1007800001010160704700000268002122F00102AF
:100790000260016041608160C160304B2F49C21A24
:1007A0008039984245D018DC2D4BA0EB03029842CB
:1007B00037D00ADC2B4A80182BD014282DD02828BB
:1007C00026D1486840F4706036E0142A2DD0282ADB
:1007D0001ED1486840F470002EE0B2F56C7F32D034
:1007E0000ADCB2F5627F29D0B2F5677F10D1D1F86B
:1007F000040440F0F00009E0B2F5717F28D0B2F5B2
:10080000767F05D1D1F8040440F47020C1F80404C7
:100810007047486840F00F000EE0486840F0F00074
:100820000AE0486840F4704006E0486840F47020F0
:1008300002E0486840F0706048607047D1F80404F6
:1008400040F00F00E2E7D1F8040440F47060DDE707
:10085000D1F8040440F47040D8E700008000024062
:1008600044000240F8FFFDBF70B5026847F6F07320
:100870009A430E6A8B680C693343D1E905562C43C1
:100880002343CC6933432343D1E909542B43234306
:1008900013430360CA6842600A6882604968C160A5
:1008A00070BD00002DE9F05FDFF89C90DFF89C80C0
:1008B0004FF0300AD9F8001001F11005088A0E7ABD
:1008C00008B9042E29D0AC880426A04200D90226FB
:1008D000844200D90446A0B2A968074688478346E7
:1008E000002000F0A5FA01463A46584601F006FEFF
:1008F0003946002001F0B2F928881549001B2880EC
:10090000688820446880A8F800A04FF44050088010
:10091000D9F800000672BDE8F09F0E480178012961
:1009200004D007261021A8F80010F1E70A4A002198
:1009300013680A4A4FEA034302EBD3325160A8F826
:1009400000A00170E4E70000140100202401002051
:10095000220100200C010020505C0040006000409B
:100960002DE9F047234EDFF890904FF030083468BF
:1009700034F8100FA168B1B108B3A588854200D939
:100980000546A8B20746884782462088401B20803B
:10099000608828446080002000F03AFA01463A4618
:1009A000504600F001FE208848B114494FF44050F1
:1009B00008800021084601F051F9A9F8008020883C
:1009C000A188884201D3032001E020B105203168CD
:1009D0000872BDE8F0873268094B062111721A6867
:1009E000002008494FEA024201EBD2314860A9F8E1
:1009F0000080EEE7140100202401002022010020E5
:100A0000505C0040006000402DE9F0415C4C5D4DC1
:100A100009262068002729684278062A05D0AAB14D
:100A2000082A4DD00A2A50D06BE00278520668D1CD
:100A30008078012804D0022804D0032804D060E084
:100A4000C96956E0096A54E0496A52E04288B2BB7B
:100A5000C288022A55D102798ABB0278530601D195
:100A6000838833B102F07F02012A04D0022A0CD01D
:100A700047E045493DE08A69407900219047F0B957
:100A80002068807A0028F4D13BE040793F4A00F0AA
:100A90007001030600F00F0002EB8002D2F8002C78
:100AA00003D5C2F30112120102E0C2F301321203B4
:100AB000374B1B78834224D909B9002AD9D120E0C9
:100AC000007840061DD1334913E0027802F07F021E
:100AD000012A16D1827AA2B1428892B9027982B9EA
:100AE000C288012A0DD18A6940790021904740B916
:100AF000294931B120684782816100208847002060
:100B000006E029682068096940788847032808D0EA
:100B100021680A8AA2F57F43FF3B05D10E72BDE82A
:100B2000F08120680672FAE7022808D03AB1087806
:100B300000061FD5C888824204D9088212E0082026
:100B40000872ECE70ED22868144B90F82C00824211
:100B500001D21F7006E0B2FBF0F400FB142008B9CC
:100B600001201870286890F82C008882BDE8F041B8
:100B7000FFF798BE03200872094900030880CEE7FA
:100B80001401002018010020B11F0008005000408F
:100B900068000020411F0008891F00080C01002088
:100BA00022010020704700E0401E0028FCD1704761
:100BB00070477047704770477047704710B54FF4E3
:100BC0008074204600F018F800280CD00648006811
:100BD000407A800602D5012000F08CFE2046BDE858
:100BE000104000F003B810BD140100200149086056
:100BF0007047000014040140054B01461A680020AC
:100C00005B690A400B4202D0002A00D001207047E5
:100C10000004014010B5837920490268A3B3D1F8DC
:100C200000349343C1F80034D1F8042403689A4394
:100C3000C1F80424027904680A44D2F8003423433A
:100C4000C2F80034D1F8082403689A43C1F8082494
:100C5000D1F80C2403689A43C1F80C244279102A75
:100C60000AD101F581610A6803681A430A604A687B
:100C7000006802434A6010BD1144D1F800240068A6
:100C80000243C1F8002410BDFFE700790844D0F802
:100C900000149143C0F80014F5E700000000014083
:100CA000064910B5032008604FF48070FFF79EFFDF
:100CB0000121BDE81040084600F088BC0401002076
:100CC0007047000004490A6822F010020A600A68AE
:100CD00002430A60704700000020024004490A688D
:100CE00002F038020A600A6802430A607047000096
:100CF000002002407047000010B58A0721F003046D
:100D00000649120F21440F238C6893409C438C604A
:100D10008B68904003438B6010BD000000000140D1
:100D2000F0B5CB780022DC0603F00F0301D58C78F8
:100D300023430C880F2714F0FF0F4FF0010C1CD039
:100D4000D0F800500E880CFA02F42640A64210D1CA
:100D5000960007FA06FE25EA0E0E03FA06F5CE788F
:100D600045EA0E05282E00D14461CE78482E00D1E8
:100D70000461521C082AE5D305600A88FF2A1ED99F
:100D80004568002202F108060CFA06F40E88264097
:100D9000A64210D1960007FA06FE25EA0E0E03FAC7
:100DA00006F5CE7845EA0E05282E00D14461CE78AE
:100DB000482E00D10461521C082AE3D34560F0BDDF
:100DC000F0B5104D6B68440D260184B2C0F3015795
:100DD000B440C0F30342032F06D1686823F0706269
:100DE00020F07060686008E0C00203D503209040E6
:100DF000834300E0A34343F0706201B122436A6081
:100E0000F0BD000000000140416170470161704782
:100E10000549096889B201EBC000044901EB4000B3
:100E2000806880B270470000505C00400060004065
:100E30000449096889B201EBC000034951F8100068
:100E400080B27047505C0040006000404FF4A571D4
:100E50004843000B70470000124810B50EC8002927
:100E60001ED011484FEA1124817004714FEA1144D9
:100E700084714FEA1161017282724FEA122101738B
:100E80004FEA124181734FEA1261017483744FEA91
:100E9000132101754FEA134181754FEA1361017601
:100EA00010BD0000E8F7FF1F10000020FEE77047AC
:100EB000704770477047000010B5134C2068017AE6
:100EC000022904D0042902D0062905D015E0FFF735
:100ED000E9FC2068007A11E04178052909D1017800
:100EE000490606D1C07800F033FE08480068006A61
:100EF000804707480068806880470820216808729A
:100F0000BDE8104000F07ABB140100201C01002055
:100F10001801002070B5104C6089FFF797FF4FF45F
:100F20009675A84201D3032070BD6089FFF78EFF3C
:100F3000642801D2022070BD2089FFF787FFA842F4
:100F400001D3042070BD2089FFF780FF642801D2FF
:100F5000012070BD002070BDA4040020124910B50E
:100F60000A680628117801F07F0103D1012901D117
:100F7000537913B121290AD013E09078222802D0A6
:100F8000212802D00DE0094904E0094902E00328C4
:100F900007D1084929B1002091615082884700207B
:100FA00010BD022010BD000014010020F90F000840
:100FB000D10F0008DD0F0008014900F0D5BF000087
:100FC00078000020014900F0CFBF00007000002031
:100FD000014900F0C9BF00008800002008B10448A2
:100FE000704704490120096808820020704700000A
:100FF0006C00002014010020014900F0B5BF000082
:101000008000002005490968C978042901D9002019
:101010007047034A02EBC10100F0A6BF1401002093
:10102000C000002009B9002800D00220704700004D
:1010300006490968097801F07F01212901D10B28AF
:1010400001D00220704700F08BB80000140100208E
:10105000234810B5006800218172C1722149C97905
:101060004172002000F06CFD4FF40071002000F090
:101070002BFE1021002000F0FFFD1821002000F0C1
:1010800085FD5821002000F0D9FD0020FFF758FB16
:10109000154890F82C10002000F088FD002000F08A
:1010A000BDFD4FF4C061012000F00EFE4FF48071D1
:1010B000012000F0C3FD0421012000F0CFFD00213C
:1010C000012000F093FD2021012000F0D5FD07490B
:1010D00001200860BDE81040002000F039BD00008C
:1010E000140100204E280008900000200401002078
:1010F00008B500210A46009101280DD06FF01D03AC
:10110000022805D0032805D0042815D11A4604E08A
:10111000194602E01E2100E01E228DF801108DF814
:1011200002200120FFF784FE01460422684601F0F8
:10113000E5F9012000F0B8FD08BD00000348807A01
:10114000002802D00249052008607047B40400203E
:1011500004010020014904200860704704010020B8
:10116000034804490068C078086000207047000008
:10117000140100206C0000207047704710B5FFF785
:101180006BFE084800240068847200F057FA064895
:101190004460064A4FF43F411180016004480460F6
:1011A00010BD000014010020405C00402001002020
:1011B0000401002070B54FF48035134C284600F030
:1011C0002DFB00F07BFB11490870284600F026FB40
:1011D000312000F0F9FA0028FAD0012000F04EFB8F
:1011E000392000F0F1FA0028FAD0022000F056FB76
:1011F00000F002FB0828FBD1A17A054809B10521BE
:1012000000E00121016070BDB40400200000002056
:1012100004010020FEE77047704700001CB511A1D3
:101220000522D1E90001CDE900016946302000F036
:101230009DF805226946102000F02CF8002468462D
:10124000015DA52903D1641CE4B2052CF8D3214625
:1012500006A001F069F9052C01D001201CBD002079
:101260001CBD0000A5A5A5A5A5000000693D25643D
:101270000A00000010B5064C4FF480412046FFF7ED
:10128000C3FD61142046BDE81040FFF7BFBD00005C
:10129000001001402DE9F047DFF83C9004460E466F
:1012A0004FF40058154641464846FFF7ADFD20462D
:1012B00000F02AFC0746002405E0FF2000F024FC93
:1012C0003055641CE4B2AC42F7D341464846FFF7C0
:1012D0009DFD3846BDE8F0870010014070B50A4E0C
:1012E00004464FF4005529463046FFF78DFD204651
:1012F00000F00AFCFF2000F007FC044629463046B7
:10130000FFF784FD204670BD0010014070B5154EFA
:1013100004464FF4804529463046FFF775FD2022EC
:101320002146A02000F022F829463046FFF76EFD46
:101330000D48FFF738FC0720FFF7D0FF04460146B1
:10134000272000F039F8E00605D5FF21E12000F064
:1013500033F8102070BDA00601D5202070BDFF20FD
:1013600070BD000000100140FFFF0E002DE9F047A6
:10137000DFF8409004460D464FF4005816464146AB
:101380004846FFF741FD204600F0BEFB074600241B
:1013900006E000BF15F8010B00F0B6FB641CE4B2D8
:1013A000B442F7D341464846FFF730FD3846BDE822
:1013B000F0870000001001402DE9F0410B4F054679
:1013C0000C464FF4005631463846FFF71DFD2846BF
:1013D00000F09AFB0546204600F096FB3146384661
:1013E000FFF714FD2846BDE8F08100000010014021
:1013F000F0B50F23C27801784FF0E024012742B303
:10140000D4F80C2D467802F4E062C2F5E062120ACC
:10141000C2F10405D3408278AE401A403243150130
:101420008A07D20E954021F003010B19D3F800640E
:10143000FF2191408E430D402E43C3F80064007895
:10144000410900F01F0004EB81018740C1F80071E1
:10145000F0BD01F01F008740480904EB8000C0F890
:101460008071F0BD024908430249086070470000DE
:101470000000FA050CED00E0024A11400143024869
:101480000160704780FFFF1F08ED00E070B5314D2F
:101490002868017844784A0606D001F07F000128C8
:1014A0002BD002282ED038E0092C06D0052C07D0EE
:1014B000032C0ED0012C17D02FE000F0C1FD2BE043
:1014C000C1787F2931D8817879BB818869BB807ADE
:1014D0002AE0C178012920D18188F1B9407A8006BB
:1014E0001BD500F0C9FD17E0C178012915D181880D
:1014F00099B9407A80060AD40FE00B2C0DD100F088
:101500000FFE09E0012C02D0032C03D005E000F00F
:101510009DFC01E000F0C2FD58B10F480068416930
:10152000E0B28847032802D018B108200FE0092054
:101530000DE00A4A062000211368094A4FEA0343D6
:1015400002EBD3325160074A4FF030011180296815
:10155000087270BD1401002018010020505C00408A
:10156000006000402401002010B50D4C2068007A76
:10157000032804D0052802D0072805D008E0FFF78B
:10158000EFF92068007A04E006480068C0688047E8
:10159000082021680872BDE8104000F02FB8000054
:1015A0001401002018010020064B10B5521C5208EF
:1015B00003EB410104D010C920F8024B521EFAD1AE
:1015C00010BD00000060004070470000084B1A6822
:1015D00022F0030202431A6006480268012942F021
:1015E0000401016001D1FEF7B1BDFEF7B1BD0000FD
:1015F0000070004010ED00E0704700000B4810B58F
:1016000090F82C10002000F0D1FA09480068017A07
:10161000082905D1074A48021080074A1020108087
:101620000120092900D0002010BD000090000020FA
:1016300014010020220100202401002010B5012007
:1016400000F09EFE0748012101604FF00001064AAC
:10165000016041604FF4E051118001604FF00000E3
:1016600010BD0000405C004020010020034A51688A
:1016700021F44041014351607047000000100240D6
:10168000044A0029516901D0014300E081435161BE
:101690007047000000100240044A0029D16901D0BF
:1016A000014300E08143D161704700000010024017
:1016B000044A0029116901D0014300E0814311610E
:1016C0007047000000100240044A0029916901D0CF
:1016D000014300E081439161704700000010024027
:1016E000044A0029D16801D0014300E08143D16060
:1016F00070470000001002400B48016841F00101F2
:1017000001604168094A114041600168084A11407E
:101710000160016821F4802101604268002122F407
:10172000FE02426081607047001002400000FFF836
:10173000FFFFF6FE30B5204A5168204B11F00C0136
:1017400003D0042901D0082901D0036011E05168B9
:10175000022401F4701104EB91415468184D14F403
:10176000803F02D05468A40301D5694300E0594387
:1017700001605168134B01F0F00109095C5C0168DC
:10178000E1404160546804F4E064240A1C5D21FADD
:1017900004F48460546804F46054E40A1B5DD94086
:1017A000C1605268074B02F44042920B1B1F9A5CC7
:1017B000B1FBF2F1016130BD0010024000127A006D
:1017C00000093D0010290008034600205909094A74
:1017D000012901D1116804E0022901D1116A00E058
:1017E000516A03F01F02012393400B4200D00120F5
:1017F00070470000001002400248406800F00C00F2
:101800007047000000100240034A516821F0F001C7
:101810000143516070470000001002400B490A6804
:1018200022F480320A600A68B0F5803F22F48022F8
:101830000A6007D0B0F5802F03D1086840F4A020DB
:1018400008607047086840F48030F9E700100240F3
:1018500070470000034A516821F4E0610143516080
:101860007047000000100240034A516821F46051A3
:1018700041EAC0005060704700100240014908660C
:101880007047000000004242034B5A68084322F4AC
:101890007C1210435860704700100240034A5168A0
:1018A00021F0030101435160704700000010024025
:1018B0000149086070470000D800424230B50B4C27
:1018C00040F2FF153120FFF77FFF20706068401C59
:1018D0006060207810B96068A842F3D13120FFF72A
:1018E00073FF002800D0012030BD00002801002037
:1018F0007047704770B51E4C072800D020702178C3
:10190000062604251B48062930D2DFE801F003062D
:10191000090E162200F030F828E000F02DF80AE059
:10192000022060700320207070BD6078401E6070DF
:1019300060780028F8D1257070BDD0F8401C89B2BD
:1019400041F01001C0F8401C052020700A20607092
:1019500070BD6178491E617061780029F8D1D0F8B6
:10196000401C89B221F01001C0F8401C267070BDE7
:10197000090100200050004010B5064C206880B2DC
:1019800020F004002060FFF715FC4FF43F4020607A
:1019900010BD0000405C00407047704770477047C2
:1019A0000029018802D041F0400101E021F040010E
:1019B0000180704770B5012186B08803FFF76CFE87
:1019C00001211D20FFF780FE244C4FF4604021468A
:1019D00020800320A0701820E0702148FFF7A0F9B4
:1019E0004FF4C04020800120A0701E4E1025E570ED
:1019F00021463046FFF794F9E80220804820E07045
:101A000021463046FFF78CF9174C204600F02EF89F
:101A100000212046FFF7C4FF0021ADF800104FF46D
:101A20008270ADF80200ADF808106015ADF80A003C
:101A3000ADF80410ADF80C500720ADF80610ADF865
:101A40000E10ADF810006946204600F040F8012164
:101A50002046FFF7A5FF06B070BD00000C00002077
:101A6000000C01400010014000380040114910B541
:101A7000401810D0B0F5806F10D0B0F5784F18D165
:101A800001210C032046FFF72BFE2046BDE8104045
:101A90000021FFF725BE01218C0301E00121CC03C9
:101AA0002046FFF705FE2046BDE810400021FFF765
:101AB000FFBD10BD00C8FFBF0246128900200A42C8
:101AC00000D001207047808970478181704770B5D0
:101AD00002880B884E888C88CD8833432C430E892E
:101AE00023434C8933438D892343CC892B4302F410
:101AF0004152234313430380828B22F4006282838A
:101B0000098A018270BD000070B50B4C05460221A8
:101B10002046FFF7D1FF0028F9D029462046FFF7DD
:101B2000D4FF01212046FFF7C7FF0028F9D0204647
:101B3000FFF7C9FFC0B270BD003800407047000019
:101B4000024920F00700086070470000505C004028
:101B5000F0B50C490C4A48F68F760B7800210AE064
:101B6000CCB202EB8405D5F8007CBFB237402743E6
:101B7000C5F8007C491C9942F2D340F08000C2F8BD
:101B80004C0CF0BD6800002000500040054A21F0D8
:101B900001011368044A9BB203EBC00002EB400052
:101BA00081607047505C0040006000400D4A13683F
:101BB0000D4A9BB203EBC00002EB40023E2909D95B
:101BC0004809C90601D1401E80B24FF4004141EAE4
:101BD000802005E04808C90701D0401C80B280027F
:101BE00010607047505C00400C6000400A4A10B51D
:101BF00002EB8002D2F8000C4BF68F7480B2CB045B
:101C000000EA040001D580F48050890401D580F4F5
:101C10000050C2F8000C10BD00500040064901EB16
:101C20008001D1F8000C4BF68F7280B2104080F426
:101C30004050C1F8000C704700500040054A21F0A8
:101C400001011368044A9BB203EBC00042F8101074
:101C500070470000505C004000600040044A126879
:101C6000044B92B202EBC00003EB400041607047AE
:101C7000505C0040006000400A4A10B502EB800250
:101C8000D2F8000C48F6BF7480B2CB0600EA04001C
:101C900001D580F01000890601D580F02000C2F83F
:101CA000000C10BD00500040064901EB8001D1F846
:101CB000000C48F6BF7280B2104080F03000C1F8CE
:101CC000000C704700500040064A02EB8000D0F83C
:101CD000002C48F68F1392B21A400A43C0F8002C29
:101CE0007047000000500040F8B5FFF705FD4FF4C5
:101CF00080342046FFF792FDFFF7E0FD31490128CF
:101D0000087023D11020FEF7DDFF0220FEF7E6FF6A
:101D10000020FFF779FD0020FFF7A6FDA011FFF7D7
:101D200099FD4FF4E0112046FFF7AEFD0120FFF7CB
:101D3000A5FD3920FFF748FD0028FAD00220FFF763
:101D4000ADFD00BFFFF758FD0828FBD101210807B2
:101D5000FFF7A2FC01210820FFF7B6FC4FF48040FA
:101D6000ADF8000003208DF8020014208DF8030068
:101D700069461548FEF7D4FF01210846FFF7A4FC89
:101D800008210620FEF7B8FF0E4C4FF48075241D85
:101D90000020256020710C2060710126A67120466C
:101DA000FEF738FFAF023846FEF720FF0820276015
:101DB0006071A6712046FEF72DFF2846FEF716FF3C
:101DC000F8BD000000000020000C014010B500200C
:101DD000FFF76EFD0121BDE81040C805FFF75CBCB0
:101DE00070B51748016817484FEA014100EBD1313F
:101DF000154D89684FEA014100EBD1342868017A1A
:101E000009290FD02178017061784170A088FEF710
:101E10009EFB296848802089FEF799FB2968888005
:101E2000A089C880286801210172C08828B1FEF706
:101E3000EBFDBDE87040FFF7E1BBFFF727FBF8E7DC
:101E4000505C0040006000401401002070B537482D
:101E50000168087810F07F0002D0022805D062E007
:101E6000487A00F0DF0048724CE04888E8BB087907
:101E7000D8BB4A792F4C130622F08000002B04EBCC
:101E800080032B4DD3F8003C03DAC3F301131B018D
:101E900002E0C3F301331B032E780546864242D984
:101EA0001BB3897A09B3110610D504EB8001D1F870
:101EB000001CC1F30111012920D1E8B20446FEF74C
:101EC0002BFC30212046FFF7D7FE17E004EB8005FE
:101ED000D5F8001CC1F3013101290FD14BF68F76E3
:101EE00090B1C0B2FEF704FC00E01CE0D5F8000C95
:101EF00080B2304080F44050C5F8000C0E480068B5
:101F000040698047002070BD0C4890F82C100020DC
:101F1000FFF74CFED4F8000C80B2304080F4405003
:101F2000C4F8000CEAE7022070BD00001401002094
:101F300068000020005000401C010020900000209C
:101F400010B5074C30B1074800680068804720682A
:101F50000A3010BD216801200882002010BD000059
:101F6000140100201C010020064A00281268508A33
:101F700002D00968084470478988081A1082002036
:101F8000704700001401002010B5074C30B107481D
:101F900000688068804720680C3010BD21680120EF
:101FA0000882002010BD0000140100201C01002048
:101FB0001F4910B5096860B11E48002202800A78E6
:101FC00053060AD002F07F02012A18D0022A18D044
:101FD00001E002200882002010BD497A8A0603D55C
:101FE000027842F002020270490603D5017801F03E
:101FF000FE0102E0017841F00101017012E00D489C
:1020000010BD4A7902F00F0113060B4A02EB810161
:10201000D1F8001C02D5C1F3011101E0C1F3013177
:102020000129E7D00548006800698047E7E700001C
:10203000140100200E010020005000401C0100206F
:102040000A4810B50A4900684A78C178914203D815
:1020500082780AB982880AB1022010BD81720548CF
:10206000006840688047002010BD00001401002077
:10207000680000201C010020064810B50068417A65
:1020800041F02001417204480068C0698047002087
:1020900010BD0000140100201C01002070B51C4878
:1020A00003681C48597921F0800500EB85000C0677
:1020B000D0F8004C21F0800203D5C4F301142401B0
:1020C00002E0C4F301342403134D2D7895420FD957
:1020D0005A886AB964B19A7A52B10906D0F8001CDC
:1020E00008D548F6BF7289B2114081F0100107E0AF
:1020F000022070BD4BF68F7289B2114081F480517D
:10210000C0F8001C0548006880698047002070BD49
:102110001401002000500040680000201C01002035
:1021200010B50E4C0E4A20681268C1789269407949
:10213000904721688A7A22B118B9087908B9887855
:1021400008B1022010BD07480068C06880472068B9
:102150004179C172C1780173002010BD14010020C3
:10216000180100201C0100200648016889B241F0D6
:1021700008010160016889B241F004010160FEF7C5
:102180008FBD0000405C004070477047704770474B
:102190007047704770477047704770477047704787
:1021A000704770477047704770B5184D4FF48044C2
:1021B00021462846FEF728FE052215493020FFF764
:1021C000D5F813490522491D2A20FFF7CFF8012130
:1021D0002120FFF7F1F801212220FFF7EDF81A2165
:1021E0002420FFF7E9F828212520FFF7E5F80F2143
:1021F0002620FFF7E1F80E212020FFF7DDF8214629
:102200002846BDE87040FEF701BE00000010014006
:1022100002290008704770477047704770470029CF
:10222000818902D041F4005101E021F40051818103
:102230007047000070B501210820FFF745FA012121
:102240000420FFF741FA012144F20100FFF73CFAB4
:102250001B4C4FF4C050214620800320A07010205A
:10226000E0701848FEF75CFD01211748FEF7A8FD55
:102270004FF4007020801820144DE070214628464D
:10228000FEF74EFD281520800420E07021462846E8
:10229000FEF746FD0E484FF416510E4C016000212A
:1022A0008180C180018181810C21418101462046CC
:1022B00000F01AF82046BDE870400121FFF7AFBFDB
:1022C0000C000020000C014000023000000801401A
:1022D00034010020003801400246128800200A42E2
:1022E00000D001207047000030B50446008A85B058
:1022F0000D464CF6FF710840E98801432182A08910
:102300004EF6F3110840A9882A8911436A890243CD
:102310001143A181A08A4FF6FF410840A9890143DA
:10232000A1826846FFF706FA1048844201D103985B
:1023300000E0029819214843296864228900B0FB13
:10234000F1F0B0FBF2F109010B096FF018056B43D6
:10235000322500EB830005EB0010B0FBF2F000F03B
:102360000F000843208105B030BD00000038014057
:10237000C1F30801818070474FF48020FEF736BC1E
:10238000044A00284FF48041104601D0FEF73CBDBE
:10239000FEF73CBD000C01407047000006480549AF
:1023A000022201600A72064A0449C0E90112086863
:1023B00000470000B4040020140100209000002019
:1023C000E000002038B500214FF00060FFF754F81E
:1023D0004FF4C060FFF746F814208DF80000012488
:1023E0008DF8014000258DF802508DF803406846B5
:1023F000FEF7FEFF2A208DF800008DF801508DF8C1
:1024000002508DF803406846FEF7F2FF17208DF862
:10241000000002208DF801008DF802508DF8034075
:102420006846FEF7E5FF38BD70B52D4ED6F8440C72
:102430002C4C608060882C4D29880840400506D5CA
:102440004FF6FF30C6F8440C284840688047618842
:1024500028880140890403D54DF6FF71C6F8441C55
:1024600061880140C80406D54EF6FF70C6F8440CDA
:102470000020FFF73FFA60882988084000050CD546
:102480001B48007810B1FFF76FFE02E00220FFF753
:1024900031FA4FF2FF70C6F8440C61882888014079
:1024A000890507D54FF6FF51C6F8441C217801F184
:1024B0000101217061880140C80506D54FF6FF6013
:1024C000C6F8440C0720FFF715FA608829880840F1
:1024D000000403D5BDE87040FEF740B870BD0000B1
:1024E000005000402A000020200100209000002021
:1024F00008010020FFF798BFFEE70000084B10B569
:10250000521C520803EB410108D003784478801C28
:1025100043EA042321F8043B521EF6D110BD00000B
:1025200000600040704700000FB4054B10B503A9D0
:10253000044A029800F018F810BC5DF814FB000083
:10254000F92600083001002002E008C8121F08C167
:10255000002AFAD170477047002001E001C1121F24
:10256000002AFBD1704700002DE9FF4F89B00446D7
:102570009B46002597E0252832D10027641C4E4A4F
:10258000B84601212378203B01FA03F0104202D023
:102590000743641CF6E720782E2819D114F8010FA0
:1025A00047F004072A280ED06FF02F022078A0F100
:1025B000300109290CD808EB880102EB410100EB3E
:1025C0000108641CF2E70A98641C50F8048B0A9016
:1025D0002078F0B3642808D0692806D075281FD069
:1025E0005A460B9990476D1C5CE00A994FF00A0916
:1025F00001C90A91002804DAC0F100004FF02D0152
:1026000002E0390504D52B218DF82010012104E0CA
:10261000F90701D02021F7E700218A4608AE0CE037
:102620000A994FF00A0901C90A91F5E74946FDF7F1
:10263000DCFD01F1300106F8011D0028F6D1ADEBFB
:10264000060000F12009780701D44FF001080020AE
:1026500000E02CE041464A46C84500DD881A804625
:10266000002706E008A85A46C05D0B9990476D1CEC
:102670007F1C5745F6DB04E030205A460B99904703
:102680006D1CB8F10001A8F10108F5DC05E016F8B1
:10269000010B5A460B9990476D1CB9F10001A9F145
:1026A0000109F4DC641C207800287FF464AF0DB0CD
:1026B0002846BDE8F08F00000928010070B500220F
:1026C0000C4B1046322403F54875002103EB01162C
:1026D00036F81060491CC9B232443229F6D3B2FB35
:1026E000F4F125F81010401C0022C0B20828ECD3E9
:1026F00070BD00008401002070B5074D0446C1B2D2
:102700002846FFF735FE80212846FFF7E5FD012822
:10271000F9D1204670BD00000038014088B0012486
:1027200020222DA16846FDF74EFDFFF7DDFAFFF7E9
:1027300049FEFFF74BFBFFF731FEFFF77BFDFDF78F
:10274000B7FDFFF737F9FEF795FDFEF767FD10B906
:1027500029A0FFF7E9FEFFF727FDDFF8B0804FF46F
:102760000069DFF8ACA06D462A4E6427FFF7A6FF8C
:10277000FEF7D0FB00B10120D8F8001005290DD0DC
:102780000021084203D0FEF7C5FBFEF7B1FC494625
:1027900050462CB1FEF73AFB002404E00121F0E79B
:1027A000FEF732FB0124002036F81010B1FBF7F1E0
:1027B0002954401CC0B20828F6D36846FEF7A6FD8F
:1027C000202807D014A000BFFFF7AEFE16A0FFF729
:1027D000ABFECBE715A0F7E70102030405060708E7
:1027E00001020304050607080102030405060708A1
:1027F000010203040506070820206E726620636844
:1028000065636B2073756363657373000401002057
:10281000000C0140A404002073656E6420666169A9
:102820006C656421000000000A00000073656E649E
:102830002073756363657373210000001201000249
:102840000000004083041057000201020301090246
:102850002200010100E0320904000001030102002E
:10286000092100010001224A00070581030400201C
:1028700005010902A1010901A100050919012903A6
:1028800015002501950375018102950175058101EA
:1028900005010930093109381581257F750895032F
:1028A0008106C0093C05FF09011500250175019548
:1028B00002B12275069501B101C004030904260383
:1028C000530054004D006900630072006F00650002
:1028D0006C0065006300740072006F006E00690098
:1028E000630073001E03530054004D003300320098
:1028F00020004A006F0079007300740069006300D3
:102900006B00344310100134431010010204060818
:102910000000000001020304010203040607080985
:102920004029000800000020340100003C0200089B
:10293000BC290008340100209C070000582500082D
:102940000110141A03531254124D12331232123161
:102950000211301319120A320804630201133C28D1
:102960003308121A4E0832221A7008324A1A6008C6
:102970003209137D11140851101B0879081A7B04C1
:10298000135D0F1B0831101A25041AC50C1AB9045F
:102990001A050C4132401ABA3832041ABE083226DF
:1029A0001AE408321E22105B201AB01A3D4809169C
:0C29B000981A551C41599F012500000099
:0400000508000131BD
:00000001FF
