:020000040800F2
:10000000400400204501000815030008090300080A
:1000100013030008A1010008D30A00080000000033
:100020000000000000000000000000009D09000822
:10003000BD01000800000000AF0400089F0900088F
:10004000D50A0008AD040008A109000893070008BC
:10005000CD010008FD060008BF010008C30100082B
:10006000C5010008C7010008C9010008A701000870
:10007000A9010008AB010008AD010008AF010008AC
:10008000B1010008B30100089D010008CF0A000873
:10009000D10A0008A3010008A5010008CB0100084F
:1000A000A3090008A9090008A7090008A509000874
:1000B000AB090008AD090008AF0900080D030008EE
:1000C0000B030008110300080F030008F3070008E2
:1000D000F5070008D9090008DB090008DD09000858
:1000E000C101000891070008CD0A0008B7090008FF
:1000F000BD090008BB090008B90900089F010008F4
:1001000001020008F1070008B1090008F70700081C
:10011000D5090008D7090008B3090008B509000887
:10012000B5010008B7010008B9010008BB010008CB
:10013000DFF80CD000F020F800480047910C0008D0
:1001400040040020004800473101000830B50B464C
:10015000014600202022012409E021FA02F59D42F7
:1001600005D303FA02F5491B04FA02F52844151ECB
:10017000A2F10102F1DC30BD064C074D06E0E0685B
:1001800040F0010394E8070098471034AC42F6D3DE
:10019000FFF7D2FF940D0008B40D000870477047B8
:1001A000FEE7704770477047704770477047704769
:1001B0007047704770477047704770477047704787
:1001C000704770477047704770477047704700002E
:1001D00004490A6822F010020A600A6802430A60B1
:1001E000704700000020024004490A6802F038020B
:1001F0000A600A6802430A6070470000002002405B
:100200007047000070B5134C10200326E070A670F4
:10021000400220802146104800F022F80F20208064
:100220001825E570A6700D4E2146304600F018F8EE
:1002300070152080E5702146304600F011F8301529
:1002400020800420E07021463046BDE8704000F078
:1002500007B8000002000020001001400008014023
:10026000F0B5CB780022DC0603F00F0301D58C78C3
:1002700023430C880F2714F0FF0F4FF0010C1CD004
:10028000D0F800500E880CFA02F42640A64210D195
:10029000960007FA06FE25EA0E0E03FA06F5CE785A
:1002A00045EA0E05282E00D14461CE78482E00D1B3
:1002B0000461521C082AE5D305600A88FF2A1ED96A
:1002C0004568002202F108060CFA06F40E88264062
:1002D000A64210D1960007FA06FE25EA0E0E03FA92
:1002E00006F5CE7845EA0E05282E00D14461CE7879
:1002F000482E00D10461521C082AE3D34560F0BDAA
:100300004161704701617047FEE770477047704771
:100310007047FEE7704700001CB511A10522D1E926
:100320000001CDE900016946302000F073F8052294
:100330006946102000F01CF800246846015DA529DC
:1003400003D1641CE4B2052CF8D3214606A000F0CA
:10035000C3FB052C01D001201CBD00201CBD0000EA
:10036000A5A5A5A5A5000000693D25640A0000001B
:100370002DE9F041DFF8388004460E46154610217D
:100380004046FFF7BDFF204600F0EEFA0746002486
:1003900005E0FF2000F0E8FA3055641CE4B2AC42FE
:1003A000F7D310214046FFF7ADFF3846BDE8F08196
:1003B0000008014070B5094D044610212846FFF79A
:1003C0009FFF204600F0D0FAFF2000F0CDFA04464F
:1003D00010212846FFF796FF204670BD0008014017
:1003E00070B505460720FFF7E5FF044601462720C4
:1003F00000F034F860060AD5202229466120FFF774
:10040000B7FFFF21E22000F029F8002070BD012095
:1004100070BD00002DE9F041DFF83C8004460D4638
:10042000164610214046FFF76BFF204600F09CFA6D
:100430000746002406E000BF15F8010B00F094FA0F
:10044000641CE4B2B442F7D310214046FFF75AFFD0
:100450003846BDE8F08100000008014070B50A4E42
:1004600005460C4610213046FFF74AFF284600F0AB
:100470007BFA0546204600F077FA10213046FFF758
:1004800041FF284670BD00000008014000214FF0E8
:10049000006000F001B80000024A11400143024828
:1004A0000160704780FFFF1F08ED00E07047704754
:1004B000044A0029D16901D0014300E08143D161A0
:1004C0007047000000100240044A0029116901D061
:1004D000014300E0814311617047000000100240B9
:1004E000044A0029916901D0014300E081439161F0
:1004F0007047000000100240044A0029D16801D072
:10050000014300E08143D1607047000000100240C9
:1005100010B500F047F84FF4803000F0D5F800F047
:100520001DF91F490128087024D11020FFF750FE43
:100530000220FFF759FE002000F0BCF8002000F078
:10054000E9F84FF4806000F0DBF84FF4E0114FF46D
:10055000403000F0EFF8012000F0E6F8392000F01C
:1005600089F80028FAD0022000F0EEF800F09AF89E
:100570000828FBD101210820FFF7B2FF012110203C
:10058000FFF7AEFF01210846FFF792FF012105208A
:10059000FFF7A6FF0121BDE810408803FFF7A0BFC9
:1005A000000000200B48016841F001010160416832
:1005B000094A114041600168084A11400160016820
:1005C00021F4802101604268002122F4FE02426091
:1005D00081607047001002400000FFF8FFFFF6FE48
:1005E00030B5204A5168204B11F00C0103D004298A
:1005F00001D0082901D0036011E05168022401F400
:10060000701104EB91415468184D14F4803F02D0EE
:100610005468A40301D5694300E05943016051685F
:10062000134B01F0F00109095C5C0168E140416095
:10063000546804F4E064240A1C5D21FA04F4846024
:10064000546804F46054E40A1B5DD940C1605268E8
:10065000074B02F44042920B1B1F9A5CB1FBF2F174
:10066000016130BD0010024000127A0000093D0017
:10067000820D0008034600205909094A012901D1C9
:10068000116804E0022901D1116A00E0516A03F007
:100690001F02012393400B4200D00120704700004D
:1006A000001002400248406800F00C007047000053
:1006B00000100240034A516821F0F00101435160EB
:1006C00070470000001002400B490A6822F4803293
:1006D0000A600A68B0F5803F22F480220A6007D0E1
:1006E000B0F5802F03D1086840F4A020086070475F
:1006F000086840F48030F9E70010024070470000BD
:10070000034A516821F4E0610143516070470000E1
:1007100000100240034A516821F4605141EAC000D0
:1007200050607047001002400149086670470000A1
:1007300000004242034B5A68084322F47C121043E3
:100740005860704700100240034A516821F00301CD
:1007500001435160704700000010024030B50B4C5F
:1007600040F2FF153120FFF785FF20706068401CC4
:100770006060207810B96068A842F3D13120FFF79B
:1007800079FF002800D0012030BD000008000020C3
:100790007047704710B5144C04212046FFF7B0FD98
:1007A000052212492A20FFF735FE01212120FFF7FB
:1007B00055FE01212220FFF751FE28212520FFF7B9
:1007C0004DFE20213120FFF749FE0F212620FFF7A3
:1007D00045FE0F212020FFF741FE2046BDE81040D6
:1007E0000421FFF78FBD0000000C0140790D0008C7
:1007F00070477047704770470029018802D041F068
:10080000400101E021F0400101807047F0B5012175
:1008100085B00803FFF764FE01210D20FFF760FE9D
:10082000264CE020264F20800320A0701820E07086
:1008300021463846FFF714FD102525800126A670B5
:10084000E57021463846FFF70BFD042020801D4F40
:10085000A670E57021463846FFF702FD2680482045
:10086000E07021463846FFF7FBFC174C204600F0AD
:100870002DF800212046FFF7BFFF0021ADF8001042
:100880004FF48270ADF80200ADF808106015ADF8B5
:100890000A00ADF80410ADF80C500720ADF80610B2
:1008A000ADF80E10ADF810006946204600F03FF894
:1008B00001212046FFF7A0FF05B0F0BD0200002097
:1008C00000080140000C014000300140114910B502
:1008D000401810D0B0F5806F10D0B0F5784F18D117
:1008E00001210C032046FFF707FE2046BDE810401B
:1008F0000021FFF701BE01218C0301E00121CC039F
:100900002046FFF7E1FD2046BDE810400021FFF73B
:10091000DBBD10BD00C8FFBF0246128900200A429D
:1009200000D001207047808970478181704770B581
:1009300002880B884E888C88CD8833432C430E89DF
:1009400023434C8933438D892343CC892B4302F4C1
:100950004152234313430380828B22F4006282833B
:10096000098A018270BD000070B50B4C054602215A
:100970002046FFF7D1FF0028F9D029462046FFF78F
:10098000D4FF01212046FFF7C7FF0028F9D02046F9
:10099000FFF7C9FFC0B270BD00300140704770471B
:1009A000704770477047704770477047704770478F
:1009B000704770477047704770477047704700290D
:1009C000018802D041F0010102E040F2FE32114004
:1009D0000180704770477047704770477047002923
:1009E000818902D041F4005101E021F4005181815C
:1009F0007047000010B50B484FF416510A4C0160C7
:100A000000218180C180018181810C2141810146C9
:100A1000204600F013F82046BDE810400121FFF702
:100A2000DEBF00002000002000380140024612888E
:100A300000200A4200D001207047000030B5044673
:100A4000008A85B00D464CF6FF710840E9880143E5
:100A50002182A0894EF6F3110840A9882A89114302
:100A60006A8902431143A181A08A4FF6FF410840E1
:100A7000A9890143A1826846FFF7B2FD104884426C
:100A800001D1039800E002981921484329686422A3
:100A90008900B0FBF1F0B0FBF2F109010B096FF036
:100AA00018056B43322500EB830005EB0010B0FB0B
:100AB000F2F000F00F000843208105B030BD0000C7
:100AC00000380140C1F308018180704770477047CA
:100AD0007047FEE7704700000FB4054B10B503A93F
:100AE000044A029800F018F810BC5DF814FB0000EE
:100AF0006D0C00081000002002E008C8121F08C199
:100B0000002AFAD170477047002001E001C1121F8E
:100B1000002AFBD1704700002DE9FF4F89B0044641
:100B20009B46002597E0252832D10027641C4E4AB9
:100B3000B84601212378203B01FA03F0104202D08D
:100B40000743641CF6E720782E2819D114F8010F0A
:100B500047F004072A280ED06FF02F022078A0F16A
:100B6000300109290CD808EB880102EB410100EBA8
:100B70000108641CF2E70A98641C50F8048B0A9080
:100B80002078F0B3642808D0692806D075281FD0D3
:100B90005A460B9990476D1C5CE00A994FF00A0980
:100BA00001C90A91002804DAC0F100004FF02D01BC
:100BB00002E0390504D52B218DF82010012104E035
:100BC000F90701D02021F7E700218A4608AE0CE0A2
:100BD0000A994FF00A0901C90A91F5E74946FFF75A
:100BE000B5FA01F1300106F8011D0028F6D1ADEB90
:100BF000060000F12009780701D44FF00108002019
:100C000000E02CE041464A46C84500DD881A80468F
:100C1000002706E008A85A46C05D0B9990476D1C56
:100C20007F1C5745F6DB04E030205A460B9990476D
:100C30006D1CB8F10001A8F10108F5DC05E016F81B
:100C4000010B5A460B9990476D1CB9F10001A9F1AF
:100C50000109F4DC641C207800287FF464AF0DB037
:100C60002846BDE8F08F00000928010070B5074D47
:100C70000446C1B22846FFF725FF80212846FFF72A
:100C8000D5FE0128F9D1204670BD00000038014092
:100C900088B00126FFF73CFCFFF7F8FBFFF7B2FA3C
:100CA00001218807FFF78BFEFFF7A4FEFFF7AEFDDB
:100CB000FFF732FBDFF8708010B91CA0FFF70CFFC4
:100CC000FFF768FDDFF87CA040464FF40059401E56
:100CD000FDD16846FFF784FBF8B11BA0FFF7FCFECF
:100CE0001DA0FFF7F9FE00246F4641F6FF65395D50
:100CF0001AA0FFF7F1FE2846401EFDD1641CE4B2A5
:100D0000082CF4D314A0FFF7E7FE4946504636B14D
:100D1000FFF7F8FA00264046D9E711A0DEE7FFF713
:100D2000EFFA0126F7E70000FFFFEF004E524620E2
:100D3000636865636B207375636365737321212139
:100D4000000000000010014072656369657665204F
:100D50006661696C656421000A0000002564090071
:100D60007265636965766520737563636573732166
:100D7000000000003443101001344310100102043D
:100D80000608000000000102030401020304060734
:100D900008090000B40D0008000000201400000045
:100DA000F80A0008C80D0008140000202C040000F8
:100DB000080B000800000000000000000000000018
:080DC00000000000000000002B
:0400000508000131BD
:00000001FF
